:020000040800F2
:10000000B032002045010008E1330008A92C0008A7
:10001000DD3300088B0B0008E556000800000000E7
:10002000000000000000000000000000794C000803
:10003000110E0008000000001D380008695100087A
:100040005F0100085F0100085F0100085F01000810
:100050005F0100085F0100085F0100085F01000800
:100060005F0100085F0100085F0100085F010008F0
:10007000850D0008950D0008A50D0008B50D0008B8
:10008000C50D0008D50D00085F0100085F010008DC
:100090005F0100085F0100085F0100085F010008C0
:1000A0005F0100085F0100085F0100085F010008B0
:1000B0005F0100085F0100085F0100085F010008A0
:1000C0005F0100085F0100085F0100085F01000890
:1000D0005F0100086D5600087D5600088D56000827
:1000E0005F0100085F0100085F0100085F01000870
:1000F0005F0100085F0100085F0100085F01000860
:100100005F0100085F0100085F0100085F0100084F
:100110005F0100085F0100085F0100085F0100083F
:100120005F0100085F0100085F0100085F0100082F
:10013000DFF80CD000F0E0FC00480047DD5B000871
:10014000B03200200648804706480047FEE7FEE739
:10015000FEE7FEE7FEE7FEE7FEE7FEE7FEE7FEE777
:10016000D7510008310100082DE9F05F0546002055
:1001700092469B4688460646814640241BE0284618
:1001800041464746224600F051F853465A46C01AA7
:10019000914110D311461846224600F077FB2D1AE4
:1001A00067EB01084F4622460120002100F06EFB5C
:1001B00017EB00094E41201EA4F10104DFDC484684
:1001C00031462A464346BDE8F09F2DE9F041002420
:1001D000061B254671F1000605DA01240027D0EB45
:1001E000070067EB0101161E73F1000605DA002710
:1001F000D2EB0702012567EB0303FFF7B5FF864645
:100200000E4617469C46AC4204D00025D0EB050EA6
:1002100065EB010624B10020D2EB000760EB030C74
:10022000704631463A466346BDE8F081202A04DB39
:10023000203A21FA02F00021704721FA02F3D0405F
:10024000C2F120029140084319467047A0F16101B4
:10025000192900D82038704740EA01039B0703D0D2
:1002600009E008C9121F08C0042AFAD203E011F8F5
:10027000013B00F8013B521EF9D27047D2B201E0B7
:1002800000F8012B491EFBD270470022F6E710B59B
:1002900013460A4604461946FFF7F0FF204610BDF4
:1002A000F0B480EA0102D40F4200B2EB410F02D257
:1002B0000246084611464A0042D0C30DDDB2C1F3E2
:1002C000C752AD1A202D35DAC1F3160141F40002F0
:1002D00004B15242C5F1200602FA06F12A41104447
:1002E000B3EBD05F23D0C4B1012DA0EBC35009DC28
:1002F000F0BC4FF0004202EAC352DBB200F500004E
:1003000000F0EEBA400000F1807000EBC350A0F1A5
:10031000807040EAD170490009E0490841EAC071A3
:10032000A0EBC35000F50000400800EBC350F0BC48
:1003300000F0CDBA6142012202EB4101001BF6E759
:10034000F0BC704781F00041AAE780F00040A7E7C9
:1003500080EA010210B502F00043400022D04A00BA
:100360001FD0010E01EB1261C0F35600C2F356021A
:1003700040F4000042F40002A0FB022000047F3998
:10038000140400D0401C50EA124001D44000491E21
:10039000C2B20C0604EBD010401C4008802A02D0E8
:1003A00003E0002010BD20F00100002900DA002049
:1003B000184310BD30B480EA010202F0004530F06D
:1003C000004221F0004013D090B1C30DD40DC2F310
:1003D0001601C0F31600E41A41F4000140F40002D3
:1003E0007D34914201D3641C00E04900002C02DA04
:1003F00030BC002070474FF400000023914201D32D
:10040000891A034340084FEA4101F7D151B19142A3
:1004100002D14FF0004105E002D24FF0010101E0AE
:100420006FF0010103EBC450284430BC00F04FBA18
:100430002DE9FE4F804681EA0300C00F0C46009074
:1004400021F0004123F00045B8EB0200A94105D29C
:100450004046214690461C460B46024623F000408B
:10046000104347D0270DC7F30A00C3F30A51029087
:10047000401A019040286BDAC3F3130040F4801B4C
:100480000098924620B10023D2EB030A63EB0B0BDA
:1004900001985946C0F14002504600F0F7F906466F
:1004A0000D4650465946019A00F0FFF910EB08003E
:1004B0006141002487EA115284EAE7731A4340D06D
:1004C000009A62B3019A012A4FEA075215DC001B19
:1004D00061EB02014FF0004202EA0752CDE900420F
:1004E000001C41F5801132462B4600F036FA03B06D
:1004F000BDE8F08F40462146F9E7001B61EB0201A1
:10050000001C41F5801300185B412018A2F500176C
:1005100047EB030140EAD570B6196D4111E06D0853
:100520004FEA360645EAC0754FEA0752001B61EBF9
:100530000201001C41F5801149084FEA3000001902
:10054000514132462B4603B0BDE8F04F00F0F6B9FA
:100550000098012240000023D0EB020263EBE0731D
:10056000009821464FEAE074B8EB000061EB04010B
:10057000E9E783F000435BE781F0004158E72DE9AC
:10058000FE4F81EA030404F0004421F0004100948E
:100590004FF0000B23F0004350EA01045ED052EA12
:1005A00003045BD0C3F30A54C1F30A552C44A4F2EC
:1005B000F3340194A0FB0254C1F3130141F4801100
:1005C000C3F3130343F4801301FB024400FB034E07
:1005D000840A970A44EA815447EA8357A4FB0768D0
:1005E00002958D0A05FB07854FEA932C04FB0C54FA
:1005F0002705029D4FEA065847EA1637B5EB08056E
:100600006EEB070C870E920E47EA811742EA8312BF
:10061000A7FB0201B6EB0B0164EB00042B0D43EAD0
:100620000C335E1844EB1C50DA465146E7FB0201DE
:10063000C5F313044FEA0B3343EA14534FEA043271
:10064000019C43EA0603A4F10C040294009CCDE94A
:1006500000B400F082F903B0BDE8F08F002001463D
:10066000F9E72DE9F04D81EA030404F0004B21F095
:10067000004514464FF0000A23F0004150EA0502FD
:1006800020D054EA01021DD0C5F30A570246C5F333
:100690001303C1F31300C1F30A5640F4801543F469
:1006A0008013A7EB0608101BD64608F2FD3873EB43
:1006B000050002D308F1010801E092185B41B8F18E
:1006C000000F03DA00200146BDE8F08D00204FF452
:1006D0008011064684460EE0171B73EB050705D311
:1006E000121B63EB050306434CEA010C49084FEA71
:1006F000300092185B4150EA0107EDD152EA030045
:1007000012D082EA040083EA0501084305D0101BD9
:10071000AB4106D20122002306E000224FF0004345
:1007200002E06FF0010253101AEB06004CEB085187
:1007300010EB0A0041EB0B01BDE8F04D00F0FEB8F4
:1007400096230022114600F0CBB80EB5C10F80EA07
:10075000E0700844CA07002140F233438DE80E00E0
:100760000A460B4600F0F9F803B000BD0EB540F2A2
:10077000334102910021CDE900110A460B4600F0F9
:10078000ECF803B000BD0EB540F2334202920022F5
:10079000CDE90022134600F0E0F803B000BD00F000
:1007A000004220F00040C10DC0F3160040F40000EC
:1007B0007F2901DA00207047962903DCC1F19601F8
:1007C000C84001E096398840002AF4D04042704782
:1007D00020F00040C10DC0F3160040F400007F2956
:1007E00001DA00207047962903DCC1F19601C84068
:1007F0007047963988407047C1F30A5210B5C1F36B
:10080000130140F2FF3341F480119A4201DA0020D3
:1008100010BD40F233439A42A2F2334203DC52420B
:10082000FFF704FD10BD904010BD01F0004330B44F
:1008300021F0004150EA010206D00A0DA2F56072D3
:10084000C1F31301002A02DC30BC00207047440FC2
:1008500044EAC104C100E01830BC00EBC25000F013
:1008600036B80000002801DBC0F10040002901DBA0
:10087000C1F1004181427047002801DBC0F1004016
:10088000002901DBC1F1004188427047202A04DBC6
:10089000203A00FA02F1002070479140C2F1200393
:1008A00020FA03F3194390407047202A06DBCB1748
:1008B000203A41FA02F043EAE07306E041FA02F31B
:1008C000D040C2F1200291400843194670470029E8
:1008D000A8BF7047401C490008BF20F001007047C6
:1008E00010B4B0FA80FC00FA0CF050EA010404BF26
:1008F00010BC704749B1CCF1200421FA04F411FA7C
:100900000CF118BF012121430843A3EB0C01CB1DBF
:100910004FEA00614FEA102042BF002010BC704730
:1009200000EBC35010440029A4BF10BC7047401C0A
:10093000490008BF20F0010010BC704710B5141E1C
:1009400073F1000408DA401C41F1000192185B4188
:100950001A4301D120F0010010BD2DE9F04D92465F
:100960009B4611B1B1FA81F202E0B0FA80F2203276
:100970009046FFF78BFF04460F4640EA0A0041EA23
:100980000B0153465A46084313D0114653EA01005F
:1009900019D0C8F140025046FFF748FC05460E4604
:1009A000504659464246FFF771FF084305D00120E3
:1009B00004E020463946BDE8F08D0020054346EAB4
:1009C000E0762C4337430A986305E40AA0EB08005D
:1009D0000022FD0A44EA47540A3002D500200146AD
:1009E000E9E7010510196941DDE908450019694188
:1009F000BDE8F04DA2E770B521F0004303430CD0F1
:100A0000C1F30A550024D5EB040564EB0403D617A3
:100A1000AD1AB34102DB0020014670BD201841EB46
:100A2000025170BD2DE9F04D00231A461B1A8A4170
:100A300003DB00200146BDE8F08DC1F30A52C1F38B
:100A4000130141F480154FF0000BD10702D10018BB
:100A50006D41521E0027044640F2FF11384601EB5B
:100A6000620A3E468046024600204FF48011FFF79E
:100A7000DDFBC2197141BB1846EB0100B4EB030C5E
:100A800075EB000C04D3E41A65EB000517460E461F
:100A9000241908F101006D4180463428E3DDF9197D
:100AA00046EB0600091BA84103D24FF0FF32134664
:100AB00001E0002213461BEB070046EB0A51BDE89C
:100AC000F04DFFF73BBF000030B5041E71F100048C
:100AD00004DB4FF00044404264EB0101141E73F14B
:100AE000000405DB1C464FF00043524263EB040355
:100AF000994208BF904230BD064C074D06E0E068C1
:100B000040F0010394E8070098471034AC42F6D354
:100B1000FFF712FBC8670008E86700082DE9F05FDF
:100B200081468A4615460027BB46002628E019F86C
:100B30000700FFF78BFBC4B2302C01DB392C03DD3F
:100B4000412C1CDB462C1ADC412C02DBA4F13700C3
:100B500001E0A4F1300000F0FF08BBF1000F08D065
:100B60003146761C48190178414401704FF0000B62
:100B700005E04FEA0870000EA8554FF0010B7F1CEE
:100B80005745D4D33046BDE8F09F00BFFEE710B50F
:100B900002F03AF908B100F001F810BD2DE9F0417A
:100BA00088B0002400260027A046002500BF404A48
:100BB0001289921F91B23E4A5268501C00F0DAF836
:100BC00080463B4BDA681B89991E394B5B68581C81
:100BD000FFF7A4FF81B23648018203461A8A59689A
:100BE000D86802F0FFFB3249088108464068067960
:100BF000084641680089C01E085C07022C4841680D
:100C00000089801E085C384487B2474524D12848B3
:100C1000406840790502264840688079284485B2BA
:100C2000284600F084F8A8B1C5F30B0520480089D8
:100C30000A38B5EB400F0BD11D4800890A381D4911
:100C40000880302E00DA08E002F08CFD044604E053
:100C5000092402E0032400E00224302E00DA23E01D
:100C60000A2C21D0082C1FD014B10021104801817A
:100C70000F4B1B1D0FCBCDE90623CDE9040110203E
:100C80008DF80C0001208DF80D0000208DF80E006D
:100C90008DF80F40DDE90601CDE90001044908782F
:100CA00003A90EC902F0AFFB08B0BDE8F081000057
:100CB000840D0020380000202921002108E006488A
:100CC00000EB4100407808B108467047481CC1B2AB
:100CD0002929F4DB2920F8E7980D002010B500241D
:100CE00014B1052004F0D4F910BD00002921002121
:100CF00007E0064810F8110008B108467047481C84
:100D0000C1B22929F5DB2920F8E70000980D002061
:100D100010B502460B460021002000BF04E0545CE1
:100D20000444A0B24C1CA1B29942F8DB10BD10B52E
:100D300002460021002302F00F000144C2F3031019
:100D40000144C2F3032001440846CC1701EB14749C
:100D50002411A1EB0414E443641CE1B201F00F047C
:100D6000104664F31F3003469A4201D1012010BDA2
:100D70000020FCE770B504460D462946204602F0E7
:100D80003FF970BD10B5024800F090F910BD0000A9
:100D9000C002002010B5024800F088F910BD000024
:100DA0007C02002010B5024800F080F910BD000060
:100DB000B001002010B5024800F078F910BD000025
:100DC0006C01002010B5024800F070F910BD000061
:100DD000F401002010B5024800F068F910BD0000D1
:100DE0003802002030B590F840500124AC40C56B6B
:100DF0006C60046863604468102C04D10468A260CD
:100E00000468E16003E00468A1600468E26030BD4A
:100E1000704772B600BFFEE72DE9FF5F81468A4644
:100E200016461C46DDF838B00020039002900025DD
:100E3000BBF1030F02DC042C00DC0CB9BDE8FF9F02
:100E40005846FFF793FC07463A460B4600201349E5
:100E500004F0E6FECDE90001FFF7CEFC0290029817
:100E6000FFF76EFC80464946FFF772FA0746FFF728
:100E7000AFFC0390002509E0E9000398C840C1B227
:100E8000601E401B0AF80010681CC5B2A542F3DBC7
:100E900030882044308000BFD0E7000000002440AC
:100EA00001480078704700001D0000200146002224
:100EB00091F82100022808D00420886300BF002098
:100EC00081F8200000BF012070470868006820F00A
:100ED0000E000B6818600868006820F001000B68BD
:100EE000186091F8403001209840CB6B5860012089
:100EF00081F8210000BF002081F8200000BF1046CB
:100F0000E2E7000070B50446002594F821000228AD
:100F100003D00420A0630125C1E02068006820F010
:100F20000E00216808602068006820F00100216838
:100F300008605C492068884252D95A49783920684B
:100F4000884201D1012047E056496439206888422F
:100F500001D1102040E0534950392068884201D126
:100F6000801539E04F493C392068884201D180140E
:100F700032E04C4928392068884202D14FF4803051
:100F80002AE0484914392068884202D14FF4801081
:100F900022E044492068884201D140041CE04249D3
:100FA0002068884201D1012016E03F4914312068B1
:100FB000884201D110200FE03B4928312068884247
:100FC00001D1801508E038493C312068884201D1C0
:100FD000801401E04FF480303349091F086051E06C
:100FE000304978392068884201D1012047E02D49F5
:100FF00064392068884201D1102040E029495039E5
:101000002068884201D1801539E026493C392068A2
:10101000884201D1801432E0224928392068884270
:1010200002D14FF480302AE01E49143920688842EA
:1010300002D14FF4801022E01A492068884201D181
:1010400040041CE018492068884201D1012016E0C4
:10105000154914312068884201D110200FE012494F
:1010600028312068884201D1801508E00E493C31C2
:101070002068884201D1801401E04FF48030094992
:1010800080394860012084F8210000BF002084F8E6
:10109000200000BF606B10B12046616B8847284676
:1010A00070BD0000800002400804024070B5044694
:1010B000E06B05682068066894F8401004208840BA
:1010C0002840002875D006F004000028FAD02068D7
:1010D000006800F0200028B92068006820F00400B3
:1010E00021680860D5492068884254D9D3497839A5
:1010F0002068884201D1042049E0D0496439206841
:10110000884201D1402042E0CC49503920688842D1
:1011100001D100153BE0C9493C392068884202D121
:101120004FF4804033E0C54928392068884202D115
:101130004FF480202BE0C14914392068884202D145
:101140004FF4800023E0BD492068884201D1C004EB
:101150001DE0BB492068884201D1042017E0B8494E
:1011600014312068884201D1402010E0B449283170
:101170002068884201D1001509E0B1493C3120685E
:10118000884202D14FF4804001E04FF48020AC4906
:10119000091F086054E0A94978392068884201D1C4
:1011A00004204AE0A54964392068884202D14020E1
:1011B00043E04CE0A14950392068884201D1001534
:1011C0003BE09E493C392068884202D14FF4804080
:1011D00033E09A4928392068884202D14FF48020B0
:1011E0002BE0964914392068884202D14FF48000E0
:1011F00023E092492068884201D1C0041DE0904953
:101200002068884201D1042017E08D4914312068FC
:10121000884201D1402010E0894928312068884265
:1012200001D1001509E086493C312068884202D18D
:101230004FF4804001E04FF48020804980394860BD
:10124000E06A002802D02046E16A8847F4E094F87A
:101250004010022088402840002871D006F002008B
:101260000028FAD02068006800F0200040B920680B
:10127000006820F00A0021680860012084F821003D
:101280006E492068884254D96C4978392068884270
:1012900001D1022049E0694964392068884201D1BE
:1012A000202042E0654950392068884201D140152C
:1012B0003BE062493C392068884202D14FF400503B
:1012C00033E05E4928392068884202D14FF400306B
:1012D0002BE05A4914392068884202D14FF400109B
:1012E00023E056492068884201D180041DE054491A
:1012F0002068884201D1022017E05149143120684A
:10130000884201D1202010E04D49283120688842D0
:1013100001D1401509E04A493C312068884202D198
:101320004FF4005001E04FF400304549091F0860B8
:1013300054E0424978392068884202D102204AE0CC
:1013400057E03E4964392068884201D1202042E0BC
:101350003A4950392068884201D140153BE037496D
:101360003C392068884202D14FF4005033E03349C1
:1013700028392068884202D14FF400302BE02F49F1
:1013800014392068884202D14FF4001023E02B4921
:101390002068884201D180041DE0294920688842E4
:1013A00001D1022017E0264914312068884201D17A
:1013B000202010E0224928312068884201D14015C0
:1013C00009E01F493C312068884202D14FF40050A7
:1013D00001E04FF4003019498039486000BF002017
:1013E00084F8200000BFA06A30B32046A16A884775
:1013F00022E094F84010082088402840E0B106F030
:101400000800C8B12068006820F00E00216808605C
:1014100094F8401001208840E16B48600120A063EF
:1014200084F8210000BF002084F8200000BF206B5A
:1014300010B12046216B884770BD0000800002403B
:10144000080402400146002209B9012070471E4BE2
:10145000086898420BD21D4B0868C01A1423B0FBD1
:10146000F3F08000086419480838C8630AE0164B96
:101470000868C01A1423B0FBF3F080000864124817
:101480000838C863022081F821000868026843F622
:10149000F0708243D1E901031843CB6818430B690C
:1014A00018434B6918438B691843CB6918430243AF
:1014B0000868026000208863012081F82100002074
:1014C00081F8200000BFC1E7080402400800024084
:1014D0002DE9F04104460D4616461F464FF0000820
:1014E00000BF94F82000012802D10220BDE8F0815D
:1014F000012084F8200000BF94F8210001282CD19D
:10150000022084F821000020A0632068006820F0F9
:101510000100216808603B46324629462046FFF715
:1015200061FCE06A30B12068006840F00E0021687C
:1015300008600BE02068006820F004002168086063
:101540002068006840F00A00216808602068006890
:1015500040F001002168086006E000BF002084F828
:10156000200000BF4FF002084046BFE770B50446B8
:1015700000F0C0F906462546681C10B10448007802
:10158000054400BF00F0B6F9801BA842FAD370BD35
:10159000080000202DE9F847024600239C467BE125
:1015A0004FF0010808FA03F4D1F8008008EA0400BB
:1015B000A0427DD1DFF8F4A2D1F80480A8EB0A099B
:1015C000D0453AD014DCB8F1030F50D009DCB8F1A3
:1015D000000F31D0B8F1010F1CD0B8F1020F49D182
:1015E00020E0B8F1110F18D0B8F1120F42D11EE06F
:1015F000B9F5881F25D006DCB9F5803F20D0B9F5B4
:10160000801F37D11AE0B9F5001F18D0B9F5041FB3
:1016100030D117E0D1F80CC02DE0D1F80C8008F1E2
:10162000040C28E0D1F80C8008F1080C23E0D1F874
:101630000C8008F10C0C1EE000BF00BF00BF00BF13
:1016400000BF00BFD1F80880B8F1000F02D14FF001
:10165000040C0BE0D1F80880B8F1010F03D14FF072
:10166000080C146102E04FF0080C546103E04FF0E5
:10167000000C00E000BF00BFFF2801D8904601E049
:1016800002F104084646FF2802D84FEA830803E027
:10169000A3F108084FEA88084746D6F800804FF0C3
:1016A0000F0909FA07F928EA09080CFA07F900E016
:1016B0007AE048EA0908C6F80080D1F8048008F00A
:1016C0008058B8F1805F6FD100BFDFF8E481D8F8AF
:1016D000188048F00108DFF8D891C9F81880C8468A
:1016E000D8F8188008F00108CDF8008000BF00BFCE
:1016F0004FEAB9384FEA930958F829504FEA8378EE
:101700004FEA18794FF00F0808FA09F825EA08059A
:10171000DFF8A081424502D14FF0000824E0DFF855
:101720009881424502D14FF001081DE0DFF88C811D
:10173000424502D14FF0020816E0DFF884814245AD
:1017400002D14FF003080FE0DFF87881424502D163
:101750004FF0040808E0DFF87081424502D14FF0F5
:10176000050801E04FF006084FEA83794FEA19793E
:1017700008FA09F848EA0505DFF850814FEA9309AD
:1017800048F82950D1F8048008F48038B8F5803F33
:101790000BD1DFF83C81D8F8008048EA0008DFF878
:1017A0003091C9F800800AE075E0DFF82481D8F8AC
:1017B000008028EA0008DFF81891C9F80080D1F805
:1017C000048008F40038B8F5003F0ED1DFF800813E
:1017D00008F10408D8F8008048EA0008DFF8F09023
:1017E00009F10409C9F800800DE0DFF8E48008F190
:1017F0000408D8F8008028EA0008DFF8D49009F13E
:101800000409C9F80080D1F8048008F48018B8F5FC
:10181000801F0ED1DFF8B88008F10808D8F80080E2
:1018200048EA0008DFF8A89009F10809C9F8008023
:101830000DE0DFF89C8008F10808D8F8008028EA5D
:101840000008DFF88C9009F10809C9F80080D1F888
:10185000048008F40018B8F5001F0ED1DFF870807E
:1018600008F10C08D8F8008048EA0008DFF860901A
:1018700009F10C09C9F800800DE0DFF8548008F187
:101880000C08D8F8008028EA0008DFF8449009F135
:101890000C09C9F800805B1CD1F8008028FA03F815
:1018A000B8F1000F7FF47CAEBDE8F887000011109E
:1018B0000010024000080140000C014000100140EF
:1018C0000014014000180140001C014008000140C4
:1018D0000004014010B5C26821EA020302EA0104D3
:1018E00043EA0443036110BD0AB1016101E00B0446
:1018F0000361704701480068704700000000002045
:1019000003480068034909780844014908607047A2
:10191000000000200800002010B50848006840F0D2
:10192000100006490860032000F0A8F80F2000F01E
:1019300007F800F02BF8002010BD00000020024046
:1019400070B504460E4800784FF47A71B1FBF0F0A0
:101950000C490968B1FBF0F5284600F0C4FD08B158
:10196000012070BD102C07D200222146501E00F02D
:1019700047F80548046001E00120F2E70020F0E7A5
:10198000080000200C0000200400002008B500BF63
:101990001148806940F001000F498861084680695C
:1019A00000F00100009000BF00BF00BF0846C06902
:1019B00040F08050C8610846C06900F08050009037
:1019C00000BF00BF00BF0549486820F0E06040F05C
:1019D0000070486000BF08BD0010024000000140D8
:1019E00001460846002809DB00F01F0301229A4047
:1019F00043099B0003F1E023C3F8002100BF7047B7
:101A00002DE9F05F80460D461646002704F03EF8AB
:101A1000074639462A46334601F00700C0F1070A57
:101A2000BAF1040F02D94FF0040A01E0C0F1070A2D
:101A3000D14600F1040ABAF1070F02D24FF0000AB2
:101A400001E0A0F1030AD4464FF0010A0AFA09FAAC
:101A5000AAF1010A0AEA020A0AFA0CFA4FF0010B8B
:101A60000BFA0CFBABF1010B0BEA030B4AEA0B047C
:101A70002146404604F012F8BDE8F09F00BF00F098
:101A80000702064B19684FF6FF031940044B0B433E
:101A900043EA0221014B196000BF70470CED00E0E2
:101AA0000000FA0570B504460D460CB9012070BD62
:101AB0005A48006800F00700A8420ED25748006854
:101AC00020F007002843554908600846006800F0E8
:101AD0000700A84201D00120E9E7207800F00200C9
:101AE00002281DD1207800F00400042805D14C48BC
:101AF000406840F4E0604A494860207800F00800FF
:101B0000082805D14648406840F460504449486080
:101B10004348406820F0F000A1680843404948600D
:101B2000207800F0010078B36068012806D13C48B5
:101B3000006800F4003090B90120B8E7606802281E
:101B400006D13748006800F0007040B90120AEE7C8
:101B50003348006800F0020008B90120A7E73048C8
:101B6000406820F00300616808432D494860FFF792
:101B7000C1FE064609E0FFF7BDFE801B41F2883139
:101B8000884202D9032092E707E02548406800F028
:101B90000C006168B0EB810FEDD12048006800F0C7
:101BA0000700A8420ED91D48006820F0070028430E
:101BB0001A4908600846006800F00700A84201D0F2
:101BC000012074E7207800F00400042807D11448AD
:101BD000406820F4E060E1680843114948602078DB
:101BE00000F00800082808D10D48406820F4605033
:101BF000216940EAC1000A49486000F03FF80849FD
:101C00004968C1F30311074A515CC840064908609E
:101C100006480068FFF794FE002048E700200240D5
:101C200000100240186700080C000020040000208B
:101C300001480068704700000C00002000B5FFF765
:101C4000F7FF04494968C1F30221034A515CC840C7
:101C500000BD0000001002402867000800B5FFF733
:101C6000E7FF04494968C1F3C221034A515CC840F7
:101C700000BD00000010024028670008F0B585B0E4
:101C80000FF26C0C9CE8E01001A8A0E8E0101CA585
:101C90002D68009500210022002300240020194D0A
:101CA000696801F00C05F5B1042D02D0082D19D199
:101CB00001E0154819E001ADC1F38346AC5D01F4C4
:101CC000803555B10F4D6D68C5F340451DF80520B1
:101CD0000D4D6543B5FBF2F302E00C4D04FB05F33B
:101CE000184602E000BF084800BF00BF05B0F0BDC5
:101CF00002030405060708090A0B0C0D0E0F10104D
:101D0000010200000010024000127A0000093D00AC
:101D1000F8B504460CB90120F8BD207800F00100A8
:101D2000002878D0F848406800F00C0004280CD057
:101D3000F548406800F00C00082811D1F2484068CE
:101D400000F48030B0F5803F0AD1EF48006800F41D
:101D5000003000285FD0606800285CD10120DBE7FC
:101D600000BF6068B0F5803F06D1E748006840F4E6
:101D70008030E549086028E0606858B9E2480068AA
:101D800020F48030E04908600846006820F4802094
:101D900008601AE06068B0F5A02F0BD1DA4800683F
:101DA00040F48020D84908600846006840F480303C
:101DB00008600AE0D448006820F48030D249086006
:101DC0000846006820F48020086000BF606888B181
:101DD000FFF790FD054606E0FFF78CFD401B6428E9
:101DE00001D9032098E7C848006800F400300028B3
:101DF000F2D010E0FFF77EFD054606E0FFF77AFD22
:101E0000401B642801D9032086E7BF48006800F41E
:101E100000300028F2D1207800F00200022857D1CB
:101E2000B948406800F00C0050B1B748406800F075
:101E30000C00082818D1B448406800F4803098B9E4
:101E4000B148006800F0020020B12069012801D0EB
:101E5000012061E7AC48006820F0F800616940EAC1
:101E6000C100A949086033E02069E8B10120A74911
:101E70000860FFF73FFD054606E0FFF73BFD401B0E
:101E8000022801D9032047E79F48006800F00200BC
:101E90000028F2D09C48006820F0F800616940EA10
:101EA000C1009949086013E0002098490860FFF7D5
:101EB00021FD054606E0FFF71DFD401B022801D964
:101EC000032029E79048006800F002000028F2D1C2
:101ED000207800F0080008282DD1A069B8B10120B1
:101EE0008B490860FFF706FD054606E0FFF702FD97
:101EF000401B022801D903200EE78348406A00F006
:101F000002000028F2D0012001F08AFC13E000203A
:101F10007F490860FFF7EEFC054606E0FFF7EAFCA4
:101F2000401B022801D90320F6E67748406A00F0FA
:101F300002000028F2D1207800F00400042873D1B8
:101F400000277148C06900F0805070B900BF6E482A
:101F5000C06940F080506C49C8610846C06900F013
:101F60008050009000BF00BF01276A48006800F45D
:101F70008070B0B96748006840F4807065490860B7
:101F8000FFF7B8FC054606E0FFF7B4FC401B6428E9
:101F900001D90320C0E65F48006800F48070002883
:101FA000F2D000BFE068012806D15748006A40F02F
:101FB00001005549086227E0E06858B95248006AB4
:101FC00020F00100504908620846006A20F0040031
:101FD000086219E0E06805280BD14B48006A40F020
:101FE0000400494908620846006A40F0010008629E
:101FF0000AE04548006A20F00100434908620846AB
:10200000006A20F00400086200BFE068A0B1FFF79A
:1020100071FC054609E0FFF76DFC401B41F2883179
:10202000884202D9032077E622E03748006A00F0B0
:1020300002000028EFD012E0FFF75CFC054608E044
:10204000FFF758FC401B41F28831884201D9032038
:1020500062E62D48006A00F002000028F0D1012F4E
:1020600005D12948C06920F080502749C86100BFC8
:10207000E069C8B32448406800F00C00082860D02C
:10208000E069022848D1002020490866FFF732FCA9
:10209000054606E0FFF72EFC401B022801D903206D
:1020A0003AE61948006800F000700028F2D1206A72
:1020B000B0F5803F07D11448406820F40030A16893
:1020C000084311494860D4E9080108430E494968AA
:1020D00021F4741108430C49486001200B4908663B
:1020E000FFF708FC054607E03DE0FFF703FC401B57
:1020F000022801D903200FE60348006800F00070B1
:102100000028F2D02FE00000001002400000424200
:102110008004424200700040002014490866FFF726
:10212000E9FB054606E0FFF7E5FB401B022801D965
:102130000320F1E50E48006800F000700028F2D19D
:1021400011E0E069012800D1E6E50948466806F497
:102150008031206A814204D106F47011606A8142A4
:1021600001D00120D8E50020D6E500000000424261
:102170000010024010B504460CB9012010BD606A81
:1021800038B96068B0F5827F00D105E00021E161D7
:1021900002E00021216161610021A16294F85100F7
:1021A00028B9002084F85000204600F043F80220AF
:1021B00084F851002068006820F040002168086021
:1021C000A08800F48270218901F404410843A189A8
:1021D00001F400610843217C01F002010843217DE4
:1021E00001F001010843218B01F400710843217FB4
:1021F00001F0380108432021095D01F08001084306
:10220000218D01F400510843216808600421A06970
:1022100001EA1040216848602068C06920F400602D
:102220002168C86100206065012084F85100002009
:10223000A4E7000010B586B0044600200290039089
:10224000049005901A49206888422FD100BF194890
:10225000C06940F480401749C8610846C06900F46D
:102260008040019000BF00BF00BF0846806940F079
:10227000080088610846806900F00800019000BFEE
:1022800000BF4FF4204002900220039003200590ED
:1022900002A90948FFF77EF94FF480400290002020
:1022A0000390049002A90448FFF774F906B010BD2A
:1022B0000038004000100240000C01402DE9FF5F93
:1022C0000446884691461D460E9E0120029000203D
:1022D000019000BF94F85000012803D1022004B0FF
:1022E000BDE8F09F012084F8500000BFFFF702FB1B
:1022F000074694F851B060680390AA46BBF1010FFD
:102300000BD00398B0F5827F04D1A06810B9BBF15F
:10231000040F02D002200190DBE0B8F1000F03D0DF
:10232000B9F1000F00D015B901200190D1E094F867
:102330005100042802D0052084F851000020606577
:10234000C4F83890E587A587C4F83080E586A5866F
:10235000206460642068006800F04000402805D0D8
:102360002068006840F0400021680860E068B0F52F
:10237000006F4AD1606810B1BAF1010F09D1206B2A
:1023800000882168C860206B801C2063E08E401E9E
:10239000E08633E02068806800F00200022810D157
:1023A000E08E70B1029801280BD1206B0088216863
:1023B000C860206B801C2063E08E401EE0860020F9
:1023C00002902068806800F0010068B1E08F58B189
:1023D0002068C068A16B0880A06B801CA063E08FA0
:1023E000401EE08701200290FFF784FAC01BB04234
:1023F00004D3701C10B1032001906AE0E08E002825
:10240000C8D1E08F0028C5D14AE0606810B1BAF1A8
:10241000010F09D1206B007821680873206B401CE4
:102420002063E08E401EE08634E02068806800F083
:102430000200022810D1E08E70B1029801280BD161
:10244000206B007821680873206B401C2063E08EAD
:10245000401EE086002002902068806800F00100A5
:1024600068B1E08F58B12068C068A16B0870A06B9C
:10247000401CA063E08F401EE08701200290FFF720
:1024800039FAC01BB04201D3701C00B916B9032041
:1024900001901EE0E08E0028C7D1E08F0028C4D153
:1024A0003A463146204602F067FB20B101200190F8
:1024B000202060650DE0A06850B900BF00200090AA
:1024C0002068C068009020688068009000BF00BF4E
:1024D00000BF012084F8510000BF002084F85000A4
:1024E00000BF0198FBE670B504462546681EB0F1B2
:1024F000807F01D301200FE0681E4FF0E02148618A
:102500000F214FF0FF3003F0C9FA00204FF0E02117
:10251000886107200861002070BDF8B504460E46AA
:10252000174694F83E0020282ED106B10FB901209D
:10253000F8BD00BF94F83C00012801D10220F7E764
:10254000012084F83C0000BF20633A463146204613
:1025500003F010F80546ADB9206B012811D100BF7A
:10256000002000902068006800902068406800907B
:1025700000BF00BF2068C06840F010002168C8603C
:1025800000E001252846D3E70220D1E770B50446D4
:102590000D4694F83E00202822D112492068884236
:1025A00007D111488580642201682046FFF7B5FFF6
:1025B00016E00E492068884207D10D4885806422C4
:1025C00001682046FFF7A9FF0AE00A49206888420F
:1025D00006D1094885800A2201682046FFF79DFF41
:1025E00070BD000000380140A804002000440040F5
:1025F000B804002000480040C804002010B504467C
:1026000010492068884206D10F486422016820469C
:10261000FFF783FF14E00D492068884206D10C487B
:10262000642201682046FFF778FF09E00949206825
:10263000884205D108480A2201682046FFF76DFF4D
:1026400010BD000000380140A804002000440040F4
:10265000B804002000480040C80400202DE9F84FCD
:102660000446206805682068C668206847694FF0FE
:102670000009CA4605F00F09B9F1000F0AD105F0AB
:10268000200038B106F0200020B1204602F081FE83
:10269000BDE8F88FB9F1000F71D007F0010018B94B
:1026A00006F4907000286AD005F0010030B106F4FD
:1026B000807018B1206C40F00100206405F0040027
:1026C00030B107F0010018B1206C40F00200206426
:1026D00005F0020030B107F0010018B1206C40F0A5
:1026E0000400206405F0080048B106F0200010B98D
:1026F00007F0010018B1206C40F008002064206C45
:1027000068B305F0200028B106F0200010B1204683
:1027100002F03FFE20684069C0F3801A206C00F090
:10272000080010B9BAF1000F22D0204602F0FCFDDB
:102730002068406900F04000B0B12068406920F096
:10274000400021684861A06B50B15648A16B4863B6
:10275000A06BFEF7D7FB10B1A06B416B88470CE074
:102760002046FFF74BFF08E02046FFF747FF04E055
:102770002046FFF743FF0020206489E7FFE7206B36
:10278000012878D105F01000002874D006F0100060
:10279000002870D000BF00200090206800680090E2
:1027A00020684068009000BF00BF2068406900F0CA
:1027B0004000C0B3A06B006840681FFA80F8B8F111
:1027C000000F2FD0A08D40452CDDA4F82E80A06BEB
:1027D000806920281FD02068C06820F4807021689C
:1027E000C8602068406920F00100216848612068C5
:1027F000406920F0400021684861202084F83E00B4
:10280000002020632068C06820F010002168C860A4
:10281000A06BFEF74BFBA08DE28D801A81B22046A3
:10282000FFF7B4FE34E7FFE7A08DE18D401A1FFAF1
:1028300080F8E08DE8B1B8F1000F1AD02068C068C8
:1028400020F490702168C8602068406920F0010081
:1028500021684861202084F83E0000202063206821
:10286000C06820F010002168C86041462046FFF78C
:102870008DFE0DE7FFE705F0800030B106F0800027
:1028800018B1204602F0C2FE02E705F0400030B168
:1028900006F0400018B1204602F061FDF8E600BFE6
:1028A000F6E60000F951000810B504460CB9012005
:1028B00010BDA06900B100E000BF94F83D0028B948
:1028C000002084F83C00204600F028F8242084F8FA
:1028D0003D002068C06820F400502168C860204690
:1028E00002F0CAFD2068006920F490402168086168
:1028F0002068406920F02A00216848612068C0688B
:1029000040F400502168C86000202064202084F832
:102910003D0084F83E000020CAE7000010B586B0F4
:10292000044600200290039004900590A849206876
:1029300088426BD100BFA748806940F48040A54918
:1029400088610846806900F48040019000BF00BFA4
:1029500000BF0846806940F004008861084680692D
:1029600000F00400019000BF00BF48150290022053
:1029700003900320059002A99748FEF70BFE4FF441
:1029800080600290002003900120049002A99248E8
:10299000FEF700FE9148924908600020486000213F
:1029A0008F4881608021C1600021016141618161A6
:1029B000C161FEF747FD08B1FEF72BFA00BF88485A
:1029C000A063446200BF854814388649086010201F
:1029D00048600021834881608021C160002101613D
:1029E00041618161C161FEF72DFD08B1FEF711FA69
:1029F00000BF7C486063446200BF0022114625206E
:102A0000FEF7FEFF2520FEF7EBFFDFE076492068AA
:102A100088426BD100BF6F48C06940F400306D49F7
:102A2000C8610846C06900F40030019000BF00BFD3
:102A300000BF0846806940F004008861084680694C
:102A400000F00400019000BF00BF042002900220AB
:102A500003900320059002A95F48FEF79BFD082024
:102A60000290002003900120049002A95A48FEF72A
:102A700091FD5A4814305D490860002048600021EB
:102A80005A4881608021C1600021016141618161FA
:102A9000C161FEF7D7FC08B1FEF7BBF900BF534890
:102AA000A063446200BF4D4828305149086010209F
:102AB000486000214E4881608021C1600021016191
:102AC00041618161C161FEF7BDFC08B1FEF7A1F96A
:102AD00000BF47486063446200BF002211462620C1
:102AE000FEF78EFF2620FEF77BFF6FE0414920684E
:102AF00088426BD100BF3748C06940F48020354917
:102B0000C8610846C06900F48020019000BF00BF82
:102B100000BF0846806940F0080088610846806967
:102B200000F00800019000BF00BF081502900220CD
:102B300003900320059002A92F48FEF72BFD4FF4C8
:102B400000600290002003900120049002A92A480E
:102B5000FEF720FD214828382849086000204860F9
:102B60000021264881608021C1600021016141610E
:102B70008161C161FEF766FC08B1FEF74AF900BF4A
:102B80001E48A063446200BF14483C381C490860DA
:102B90001020486000211A4881608021C160002116
:102BA000016141618161C161FEF74CFC08B1FEF732
:102BB00030F900BF12486063446200BF0022114632
:102BC0002720FEF71DFF2720FEF70AFF06B010BDE5
:102BD0000038014000100240000801405800024047
:102BE0006C010020B001002000440040F4010020EE
:102BF0003802002000480040000C01407C02002008
:102C0000C002002070477047F7B50446154694F897
:102C10003D0020283DD1019800B10DB90120FEBD35
:102C200000BF94F83C00012801D10220F7E7012001
:102C300084F83C0000BF01982062A584E584002050
:102C40002064212084F83D001348616B886213489A
:102C5000616BC8621248616B08630020616B486356
:102C600001AE23681A1D31682B46606BFEF730FCFD
:102C70006FF040002168086000BF002084F83C002D
:102C800000BF2068406940F0800021684861002052
:102C9000C5E70220C3E70000E55200081B53000807
:102CA0000D5200087047704700BFFEE7F0B585B0D1
:102CB00007460D46164614220FA16846FDF7CCFACA
:102CC000002410E0385D694601EB2010007806F81A
:102CD0001400385D00F00F001DF80000012101EB29
:102CE00044017054641CAC42ECD3002006F815007B
:102CF000680005B0F0BD000030313233343536376E
:102D00003839414243444546000000000146002056
:102D100021295AD014DC212972D2DFE801F03D3E8E
:102D20003F404142434445464748494A4B4C4D4E3B
:102D30004F505152535471717171717171715500CD
:102D400030294FD00BDCA1F122020C2A58D2DFE847
:102D500002F03D3E3F4041424344454647484229F8
:102D600046D00CDC352940D004DC31293BD0322957
:102D700046D139E0402939D0412941D137E04529B0
:102D800039D004DC432934D0442939D132E07F29B9
:102D900032D0EA2934D130E000BF00BF00BF00BF0D
:102DA00000BF00BF00BF00BF00BF00BF00BF00BF2B
:102DB00000BF00BF00BF00BF00BF00BF00BF00BF1B
:102DC00000BF00BF00BF00BF00BF00BF00BF00BF0B
:102DD00000BF00BF00BF00BF00BF00BF00BF00BFFB
:102DE00000BF00BF00BF00BF00BF00BF00BF00BFEB
:102DF00000BF00BF00BF00BF00BF012001E0FFE730
:102E000000BF00BF704700000748406800787E2878
:102E100008D1054841680089401E085C0D2801D191
:102E2000012070470020FCE7840D002010B500242D
:102E300016488088002811DD144B9A881968144BB5
:102E40005868FDF709FA114881881148018100206E
:102E50000F4908700D498880012415E00D488088CD
:102E6000002811DD0B4B9A881968094B5868FDF74B
:102E7000F3F9084881880648018101200449087057
:102E80000020044988800124204610BDA8040020A9
:102E9000840D0020B804002010B518210348FDF768
:102EA000F4F90321002001F01BFF10BD980E002053
:102EB0000FB59DF80000000305490860054840680B
:102EC0009DF8001008440003014948600FBD000050
:102ED0003C000020EC0D002070B504460D46002695
:102EE000052C04D1284600F00BF8012600E000BFB5
:102EF00000BF304670BD10B500F010F810BD0000E6
:102F0000052101700349416003498160A02181814D
:102F100070470000F72E0008F80D002010B5A02122
:102F20000148FDF7B2F910BDF80D002010B552218F
:102F30000248FDF7AAF9FFF7F1FF10BD980D002038
:102F4000024800210160416081607047D804002080
:102F500010B564211C48FDF798F964211B48FDF762
:102F600094F91B480021016041608160C1601648EE
:102F7000174908601548886064211648FDF785F9EF
:102F800064211548FDF781F9144800210160416072
:102F90008160C1600F48114908600F4888600A21AC
:102FA0000F48FDF772F90F4800210160416001816F
:102FB0000D48016041608160C16009480A490860AC
:102FC0000848886010BD000004030020680300204A
:102FD000A8040020CC03002030040020B804002006
:102FE000940400209E040020C804002010B5FFF7C0
:102FF000AFFFFFF7A5FFFFF799FFFFF74DFF10BDEC
:1030000070B504460D46002629462046FDF780FE91
:103010000646F043401C80B270BD000070B5044607
:103020000D46314800EBC400407820B1012814D08F
:10303000022851D141E02C4901EBC401081DC821EF
:1030400002F0CAF840B10121204601F04FFE0120F4
:10305000254901EBC401487044E0234901EBC40158
:10306000081DC82102F0B8F800B30021204601F085
:103070003DFE2DB900201C4901EBC40148701BE046
:10308000194800EBC4008078401CC0B2164901EB1F
:10309000C4018870A8420ADB0020134901EBC40177
:1030A00088700220104901EBC401487004E0002040
:1030B0000D4901EBC401487014E00B4901EBC40158
:1030C000081D4FF47A7102F087F820B100200649FC
:1030D00001EBC401487005E00020034901EBC40185
:1030E000487000BF00BF70BD980E002010B50024CE
:1030F00000BF2EE0184810F83400062826D2DFE87A
:1031000000F0030C151A1F240021204601F0EEFDEB
:103110000520114901F8340018E00121204601F092
:10312000E5FD05200C4901F834000FE000212046A0
:10313000FFF774FF0AE001212046FFF76FFF05E06B
:1031400002212046FFF76AFF00E000BF00BF601CBD
:10315000C4B2032CCEDB10BD980E00201FB568460C
:10316000FFF7CEFE9DE80F0001F0F2FEFDF7B6FD81
:103170001FBD000008B500BF1E48406940F00100B7
:103180001C4948610846406900F00100009000BFFA
:1031900000BF002211460C20FEF732FC0C20FEF787
:1031A0001FFC002211460D20FEF72AFC0D20FEF721
:1031B00017FC002211460E20FEF722FC0E20FEF71F
:1031C0000FFC002211460F20FEF71AFC0F20FEF71D
:1031D00007FC002211461020FEF712FC1020FEF71B
:1031E000FFFB002211461120FEF70AFC1120FEF71A
:1031F000F7FB08BD0010024000B585B0002001902B
:1032000002900390049000BF2848806940F00400B9
:10321000264988610846806900F00400009000BFDC
:1032200000BF00BF0846806940F00800886108467A
:10323000806900F00800009000BF00BF0022C0219C
:103240001B48FEF751FB012241F201011948FEF72C
:103250004BFB01224FF4C0511548FEF745FBC0203F
:10326000019001200290022003900320049001A904
:103270000F48FEF78FF941F2010001900120029002
:1032800003900320049001A90A48FEF783F94FF444
:10329000C05001900120029003900320049001A9E6
:1032A0000348FEF777F905B000BD000000100240AA
:1032B00000080140000C014010B50E480E4908609E
:1032C0004FF48270486000210B488160C160022188
:1032D000016101214161490281610021C1610162F5
:1032E000416281620A21C162FEF744FF08B1FDF725
:1032F00090FD10BD003800404800002010B50E4879
:103300000E4908604FF41650486000210B48816058
:10331000C16001610C21416100218161C161FFF740
:10332000C3FA08B1FDF775FD05486422016803483A
:10333000FFF7F3F810BD000000380140A0000020A6
:10334000A804002010B50E480E4908604FF416502E
:10335000486000210B488160C16001610C2141611E
:1033600000218161C161FFF79FFA08B1FDF751FDAE
:103370000548642201680348FFF7CFF810BD00003C
:1033800000440040E4000020B804002010B51048BC
:10339000104908604FF4965048604FF480510D4832
:1033A00081600021C1604FF4806101610C214161A5
:1033B00000218161C161FFF777FA08B1FDF729FDAE
:1033C00005480A2201680348FFF7A7F810BD00006E
:1033D0000048004028010020C804002000BFFEE78C
:1033E00000BFFEE770B506460C4615467E202070ED
:1033F0002A463146601CFCF72FFF0D21681C215422
:10340000A81C80B270BD0FB42DE9FC410746002610
:103410000024002001900025BDF82C100C9A0A9879
:10342000FFF744FC81B2ADF83410BDF8340000F071
:1034300091F806460625BDF82C00401E284484B2AB
:1034400006E0611B0A98405C0A990855601E84B228
:10345000002CF6DC9DF824000A9908709DF82500E0
:103460000A9948709DF8260038B942200A99887058
:103470009DF827000A99C87000E000BF00BF300A1D
:103480000A9908710A994E71BDF82C00801D81B20D
:10349000ADF82C10BDF82C100C9A0A98FFF706FC1A
:1034A00081B2ADF83410BDF834100C98FDF762FC11
:1034B0000190BDF834000C990A1801210DF10500A6
:1034C000FFF7F4FB0146BDF83400084481B2ADF8C3
:1034D0003410BDF834000C990A18012101A8FFF737
:1034E000E5FB0146BDF83400084481B2ADF8341064
:1034F0000125BDF83400401E284484B205E0611B5C
:103500000C98415C0155601E84B2002CF7DC7E21D2
:103510000C980170BDF83400401C81B2ADF8341035
:103520000D21BDF834000C9A1154BDF83400401C34
:1035300081B2ADF834100CA90AA801F007FE0D986D
:10354000009038460AA90EC901F098FBBDE8FC01BD
:103550005DF814FB002100F00F021144C0F30312C8
:103560001144C0F3032211440A46CB1701EB137335
:103570001B11A1EB0313DB435B1CD9B201F00F035A
:10358000024663F31F321046704700002DE9FC41EC
:103590000027002600200190072601906E48406811
:1035A0000079F13806287DD2DFE800F003072036E5
:1035B000A0B5012001F0C8FBC6E06748426830466C
:1035C000711C8EB2145C24B1012C03D0022C09D1E1
:1035D00001E000BF00BF022001F0B6FB204600F072
:1035E00001FC01E0062700BF00BFADE05A48426879
:1035F0003046711C8EB2155C15B1012D08D100E06A
:1036000000BF032001F0A0FB284600F049FC01E0C8
:10361000062700BF00BF97E003204F4A0090D26802
:10362000BDF80430D1184D4A0423106801AAFDF7F3
:10363000F3FB0320484A0090D268BDF80430D1184B
:10364000464A0423506801AAFDF7E6FB0320424ADC
:103650000090D268BDF80430D118404A0423906825
:1036600001AAFDF7D9FB3D48D0E904211046FDF73A
:10367000DCF88046032000903748C068BDF804207D
:103680008118042301AA4046FDF7C6FB0320324AF5
:103690000090D268BDF80430D118304A04239069F4
:1036A00001AA00E04FE0FDF7B7FB03202A4A009093
:1036B000D268BDF80430D118284A0423D06901AA81
:1036C000FDF7AAFB2549D1E90A211046FDF7ADF81F
:1036D0008046032000902048C068BDF8042081186F
:1036E000042301AA4046FDF797FB2DE000211C4A68
:1036F000116051600020083210605060A2F1980102
:10370000A1F848000021A2F19800A0F84A10052075
:1037100001F0BEFC18E0FDF7C3FB042809D100212D
:103720000D48BDF80430C268581C80B20190D154D5
:1037300008E001210848BDF80430C268581C80B276
:103740000190D15400E000BF00BFBDF80410024852
:1037500001823846BDE8FC81840D00202806002047
:10376000880E002010B5002400212B4801824068FB
:103770000079502804D028484068007951281FD18A
:1037800025484068C078422818D12348406800790D
:10379000512839D120484068407810280CD11E4863
:1037A00040688078002805DD1B4840688078FF2845
:1037B00000DA29E0062427E0012425E0082423E09C
:1037C00015484068807801281DD113484068007969
:1037D0004F2806D110484068C078422814D00824E9
:1037E00012E00D484068407810280AD10A48406825
:1037F000C078422803D1FFF7C9FE044604E008243C
:1038000002E0012400E00A2403490C31A1F1080080
:1038100001F09CFC204610BD840D00207047000084
:1038200008B508490968C9084FF47A72B1FBF2F18A
:103830004143009100BF00BF00994A1E0092002939
:10384000F9D108BD0C00002010B507494868FCF705
:1038500077FF044621460548FCF7ACFD044908649F
:10386000052001F015FC10BDE005002000004842D5
:10387000F80D00202DE9F04F8DB000200C9082460D
:1038800083463E4908683E49FCF762FD0446FCF762
:103890009FFF0C900C98FCF769FFCDE908010C988C
:1038A000FCF764FF804689460022364B1046190219
:1038B00002F0B6F906460022334BFCF760FE0246E2
:1038C0000B46CDE9000100203049FCF7CAFECDE9E6
:1038D00002012F494869FCF738FF0446DDE902235D
:1038E000FCF74DFE42464B46CDE90401FCF741FE94
:1038F000CDE90601DDE90823FCF7B3FECDE90A01B5
:10390000FCF793FF824651464FF07E50FCF7C8FC0F
:10391000044621465046FCF74DFD8346594600209B
:10392000FCF710FD834600215846FCF7A5FF0BD29B
:103930004FF08E415846FCF70BFD0446FCF72FFF75
:1039400000B2144948810FE04FF08E415846FCF711
:10395000FFFC05464FF08F41FCF7A2FC0446FCF744
:103960001EFF00B20B4948810A4841890A48C182BA
:10397000052001F08DFB0DB0BDE8F08F280600207A
:10398000000048420000404000002040E033344145
:10399000E0050020E4040020F80D00202DE9F04FA0
:1039A0008DB000200C900B900A903D48B0F90A00B1
:1039B000002808DD3A49B1F90A00C11700EB51416E
:1039C000C9130B9109E03649B1F90A10A1F580300D
:1039D000C11700EB5141C9130B91324A516810686D
:1039E000FCF7B6FC0446FCF7F3FE0C900B99481C60
:1039F000FCF7ABFECDE908012B494869FCF7A5FEB1
:103A000000222A4BCDE904011046190202F008F900
:103A100080460022264BFCF7B2FD02460B46CDE95C
:103A2000000100202349FCF71CFECDE902010C989F
:103A3000FCF79CFE0646DDE90223FCF712FE044675
:103A4000DDE90423FCF795FDCDE90601DDE9082356
:103A5000FCF707FE8246FCF7E8FE0A9000210A9870
:103A6000FCF70AFF06D20A98FCF799FE00B20C494F
:103A700048820AE04FF08F410A98FCF711FC044697
:103A8000FCF78DFE00B2064948820548418A0A4883
:103A9000C183052001F0FCFA0DB0BDE8F08F0000F5
:103AA000E404002028060020E0050020000040403B
:103AB00000002040E0333441F80D002010B50749E4
:103AC0008868FCF73DFE044621460548FCF772FC79
:103AD00004494864052001F0DBFA10BDE005002030
:103AE00000004842F80D00202DE9F04F8DB0002075
:103AF0000C90824683463E4908683E49FCF728FC04
:103B00000446FCF765FE0C900C98FCF72FFECDE9FF
:103B100008010C98FCF72AFE804689460022364BA5
:103B20001046190202F07CF806460022334BFCF7DF
:103B300026FD02460B46CDE9000100203049FCF786
:103B400090FDCDE902012F498869FCF7FEFD04468E
:103B5000DDE90223FCF713FD42464B46CDE90401A3
:103B6000FCF707FDCDE90601DDE90823FCF779FD47
:103B7000CDE90A01FCF759FE824651464FF07E50CE
:103B8000FCF78EFB044621465046FCF713FC8346A7
:103B900059460020FCF7D6FB834600215846FCF727
:103BA0006BFE0BD24FF08E415846FCF7D1FB04461A
:103BB000FCF7F5FD00B2144988810FE04FF08E410B
:103BC0005846FCF7C5FB05464FF08F41FCF768FBF4
:103BD0000446FCF7E4FD00B20B4988810A4881895C
:103BE0000A480183052001F053FA0DB0BDE8F08FBB
:103BF000280600200000484200004040000020400D
:103C0000E0333441E0050020E4040020F80D0020FA
:103C10002DE9F04F8DB000200C900B900A903D489C
:103C2000B0F90C00002808DD3A49B1F90C00C117C1
:103C300000EB5141C9130B9109E03649B1F90C1061
:103C4000A1F58030C11700EB5141C9130B91324AE5
:103C500091691068FCF77CFB0446FCF7B9FD0C90F9
:103C60000B99481CFCF771FDCDE908012B498869C7
:103C7000FCF76BFD00222A4BCDE904011046190226
:103C800001F0CEFF80460022264BFCF778FC02466E
:103C90000B46CDE9000100202349FCF7E2FCCDE909
:103CA00002010C98FCF762FD0646DDE90223FCF7F1
:103CB000D8FC0446DDE90423FCF75BFCCDE90601F2
:103CC000DDE90823FCF7CDFC8246FCF7AEFD0A9047
:103CD00000210A98FCF7D0FD06D20A98FCF75FFD98
:103CE00000B20C4988820AE04FF08F410A98FCF735
:103CF000D7FA0446FCF753FD00B20649888205480E
:103D0000818A0A480184052001F0C2F90DB0BDE89E
:103D1000F08F0000E404002028060020E0050020C9
:103D20000000404000002040E0333441F80D002006
:103D300010B500241848407810B1012827D108E0B8
:103D400000F02EF8154800F011FF012012494870CC
:103D50001EE042F21071114801F03EFAB0B10E4877
:103D6000007810B900F0A6F80CE00B4800780128A4
:103D700004D1FFF769FDFFF77DFD03E0FFF79EFE2D
:103D8000FFF7B2FE012402200349487000E000BFA3
:103D900000BF204610BD0000280000202C0000209D
:103DA00010B500F0DBFB00F06DFE00F0B1FA0C493D
:103DB000098808440A49088000F0DCFB08490988A2
:103DC00008440749088000F013FC054909880844A5
:103DD0000349088008460088C043088010BD0000E1
:103DE00010000020032800DB70470249087000BF64
:103DF000FAE700002800002010B50024124840789F
:103E000010B101281CD108E000F022F80F4800F0A2
:103E1000ADFE01200C49487013E042F210710B48CE
:103E200001F0DAF958B10848007810B9FFF7B6FD8B
:103E300001E0FFF7EDFE012402200349487000E095
:103E400000BF00BF204610BD30000020340000201D
:103E500010B500F083FB00F015FE00F059FA0F4991
:103E6000098808440D49088000F084FB0B49098843
:103E700008440A49088000F0BBFB08490988084447
:103E80000649088000F0D4FA044909880844034927
:103E9000088008460088C043088010BD100000203C
:103EA000022800DB70470249087000BFFAE70000F3
:103EB0003000002010B50749C868FCF741FC0446F3
:103EC00021460548FCF776FA0449C863052001F04D
:103ED000DFF810BDE005002000004042F80D002092
:103EE00010B5442222492348FCF7B6F92148C0689E
:103EF000C0F30F20204908850846408D1D49097BE5
:103F0000C1F3031140EA01201B4948851948406864
:103F1000C0F30F2088840846408D16490979C1F303
:103F2000031108431449488512488068C0F30F20E4
:103F3000C8840846408D0F49097AC1F3031140EA4D
:103F400001100D4948850846018D0C4881860A48B4
:103F5000818C0A4801860848C18C08484186064879
:103F6000418D0648C186052001F092F810BD000081
:103F7000E0050020FC0C0020E4040020F80D0020E7
:103F800010B50D48406840436FEA102000B20B495D
:103F900048830948806840436FEA102000B2888354
:103FA0000846418B0648C1840448818B044801853A
:103FB000052001F06DF810BDE0050020E4040020AC
:103FC000F80D002070B50024442243494348FCF713
:103FD00043F94348C0684149C968B0FBF1F630462F
:103FE000FCF7AEFB05464FF07E51FCF73BFC15D2CB
:103FF0003B48C068C0433A49C8600846C068C0F33F
:104000000F20384908850846408D3549097BC1F3A2
:10401000031140EA012033494885012430484068B3
:104020002E494968B0FBF1F63046FCF789FB05469E
:104030004FF07E51FCF716FC14D229484068C0436B
:104040002749486008464068C0F30F202549888406
:104050000846408D22490979C1F3031108432149DB
:10406000488501241E4880681C498968B0FBF1F628
:104070003046FCF765FB05464FF07E51FCF7F2FB3E
:1040800015D217488068C043154988600846806883
:10409000C0F30F201349C8840846408D1049097A9F
:1040A000C1F3031140EA01100E49488501240D486F
:1040B000018D0D4881860B48818C0B48018609488B
:1040C000C18C094841860748418D0748C1860520B3
:1040D00000F0DEFF204670BDE0050020400D00200E
:1040E000FC0C0020E4040020F80D002010B5002492
:1040F0002348007805283FD2DFE800F0030C1A2D92
:10410000370000F041F81F4800F030FD01201C4945
:10411000087032E042F210711A4801F05DF830B1D7
:10412000FFF7DEFE00F044F802201549087024E095
:1041300042F21071134801F04FF858B1FFF742FFF7
:1041400028B100F035F803200D49087002E0042082
:104150000B49087011E042F210710A4801F03CF876
:1041600010B104200649087007E0FFF709FF012499
:1041700005200349087000E000BF00BF204610BDC5
:10418000200000202400002010B500F0E7F900F026
:1041900079FC00F0BDF80549098808440349088006
:1041A00008460088C043088010BD000010000020B1
:1041B00010B500F0D3F900F065FC00F0A9F808494B
:1041C000098808440649088000F0D4F904490988A0
:1041D00008440349088008460088C043088010BD91
:1041E000100000202DE9FE4307460E461446002528
:1041F000A8468DF8007000BF04E0715D681C0DF8E2
:104200000010C5B2601EA842F7DC21466846FCF7E4
:104210007FFDC04300F0FF08601E305C404502D1C6
:104220000120BDE8FE830020FBE7000010B5154823
:10423000007830B101280AD002280FD003281BD102
:1042400013E000F021F804200E49087015E0FFF794
:104250004DFF10B100200B4908700EE0FFF768FD1C
:1042600010B100200749087007E0FFF7C5FD10B145
:1042700000200449087000E000BF00BF00F0E0F932
:1042800010BD00001D00002010B500F067F900F01F
:10429000F9FB00F03DF814490988084412490880E8
:1042A00000F068F91049098808440F49088000F0B7
:1042B0009FF90D49098808440B49088000F0B8F8B7
:1042C0000949098808440849088000F0F7F80649B8
:1042D000098808440449088008460088C0430880CB
:1042E00000F07AF810BD0000100000200020014905
:1042F000487070472800002000200149487070472E
:104300003000002000200149087070472000002084
:1043100010B5002401221D49EA2000F011FC022200
:104320001B49002000F00CFC02221949891C0120C5
:1043300000F006FC02221649091D104600F000FCA0
:10434000022213492C31172000F0FAFB01220F49F9
:10435000491CEA2000F0F4FB0D480088204484B298
:104360000B484088204484B209488088204484B2A5
:104370000748808D204484B200F082F8204484B243
:1043800000F0C4F8204484B2204610BD3067000815
:10439000E404002010B52E210D48FBF776FF2E22F5
:1043A0000C490B48FBF758FF41F26260084908804E
:1043B00047F6FF70C8834DF2634048804FF4BE500B
:1043C0008880B02088856020C880088110BD0000EA
:1043D000E4040020040E002010B501220A49EA205E
:1043E00000F0AEFB02220949202000F0A9FB0222C6
:1043F0000649891C212000F0A3FB01220249491C27
:10440000EA2000F09DFB10BD306700081405002075
:1044100010B544210448FBF738FF44220349024801
:10442000FBF71AFF10BD000014050020400E00200D
:1044300010B5002401221049EA2000F081FB02227D
:104440000E49052000F07CFB02220C49891C062045
:1044500000F076FB01220849491CEA2000F070FBBD
:1044600006480A384089204484B204480A388089C2
:10447000204484B2204610BD30670008EE040020BE
:1044800010B5002401220B49EA2000F059FB02225A
:104490000949102000F054FB01220649491CEA207A
:1044A00000F04EFB04481E38C08B204484B22046E6
:1044B00010BD0000306700080205002010B5002480
:1044C00001221049EA2000F03BFB02220E490A209B
:1044D00000F036FB02220C49891C0B2000F030FB57
:1044E00001220849491CEA2000F02AFB064812383C
:1044F000408A204484B204481238808A204484B21E
:10450000204610BD30670008F604002010B50024D6
:1045100001221049EA2000F013FB02220E49032079
:1045200000F00EFB02220C49891C042000F008FB5D
:1045300001220849491CEA2000F002FB0648801FBE
:10454000C088204484B20448801F0089204484B27B
:10455000204610BD30670008EA04002010B5002096
:1045600003490880FFF716FFFFF752FF10BD000058
:104570001000002010B5002401221B49EA2000F0A1
:10458000DFFA02221949132000F0DAFA0222174951
:10459000891C142000F0D4FA02221449091D1520A8
:1045A00000F0CEFA02221149891D162000F0C8FA47
:1045B00001220D49491CEA2000F0C2FA0B482438B8
:1045C000808C204484B209482438C08C204484B2B2
:1045D00006482438008D204484B204482438408D95
:1045E000204484B2204610BD306700080805002032
:1045F00010B5002401221049EA2000F0A1FA02229D
:104600000E490E2000F09CFA02220C49891C0F2052
:1046100000F096FA01220849491CEA2000F090FABD
:1046200006481A38408B204484B204481A38808BDC
:10463000204484B2204610BD30670008FE040020EC
:104640002DE9F04792B04FF0000A18210CA8FBF7B3
:104650001CFE0020089009900A900B90059006908F
:1046600007906421D64800F0B7FD00287ED02420B2
:1046700000F002FA8DF81400222000F0FDF98DF808
:104680001500262000F0F8F98DF81600292000F01A
:10469000F3F98DF81700232000F0EEF98DF81800DB
:1046A000272000F0E9F98DF819002B2000F0E4F93B
:1046B0008DF81A002D2000F0DFF98DF81B00202066
:1046C00000F0DAF98DF81C00212000F0D5F98DF802
:1046D0001D0000BF0EE005A810F80A00012805D152
:1046E000002000F031FB12B0BDE8F0870AF10100B4
:1046F00000F0FF0ABAF10A0FEDDB41F28831B14850
:1047000000F06AFD60B1B048008EB049A1F84800E1
:10471000AD48418EAD48A0F84A10052000F0B8FC25
:10472000A948006D70B1A9489030D0E90031A64881
:10473000006D181841F10001A44A903203C205200F
:1047400000F0A6FCA048806D70B1A0489830D0E978
:1047500000319D48806D181841F100019B4A983244
:1047600003C2052000F094FC994900E026E1097895
:1047700001EB0111974A02EB81004422924930314A
:10478000FBF76AFD92480078401CC0B2904908705F
:10479000192805DB0020087001218F48FDF79AF8E1
:1047A0004FF0000A43E00AEB0A108A4A02EB80004D
:1047B000DDE90C31C068181841F10001CDE90C01A8
:1047C0000AEB0A11834B03EB8101DDE90E204968F6
:1047D000511840F10000CDE90E100AEB0A107D4A95
:1047E00002EB8000DDE910318068181841F100010A
:1047F000CDE910010AEB0A1102EB8101DDE9083075
:104800004969CA1759185041CDE908100AEB0A1036
:10481000704A02EB8000DDE90A318069C21718187E
:104820005141CDE90A010AF1010000F0FF0ABAF195
:10483000190FB8DB19220023DDE90C412046FBF7F4
:1048400093FC6649C86019220023DDE90E41204629
:10485000FBF78AFC6149486019220023DDE9104119
:104860002046FBF781FC5D49886019220023DDE9C1
:1048700008412046FBF7A9FC58494861192200234A
:10488000DDE90A412046FBF7A0FC54498861C8686D
:10489000FBF756FF04464D48C16B2046FBF758FD19
:1048A0004F4908604D494868FBF74AFF04464748AE
:1048B000016C2046FBF74CFD494948600022494BFA
:1048C0001046190201F0ACF980460022464BFBF776
:1048D00056FE02460B46CDE9000100204349FBF796
:1048E000C0FE04460D463D494869FBF72EFF0646CB
:1048F00022462B46FBF743FECDE90201FBF795FF6D
:10490000374988600A4651681068FBF721FD344931
:10491000C8602E489030D0E900211046FBF733FFE5
:1049200004460022324BFBF79CFE2D4AC2E90401EB
:104930002A498868FBF704FF04462448416C204656
:10494000FBF706FD264988610022264B1046190216
:1049500001F066F90022244BCDE90001FBF70FFEC0
:10496000064632460B4600202049FBF77AFE0446F5
:104970000D461A498869FBF7E8FE804622462B4619
:10498000FBF7FDFDCDE90201FBF74FFF1449C861BC
:104990000A4691691068FBF7DBFC114908620B4875
:1049A0009830D0E900211046FBF7EDFE04460022C6
:1049B0000F4BFBF756FE0A4AC2E90A0100BF92E616
:1049C000140000201800002058050020F80D0020D9
:1049D0001C00002058060020000C0140E0050020CB
:1049E000280600200000404000002040E033344111
:1049F0000000A94031B584B00025002400200090BB
:104A00009DF81000FEF782F910B9012005B030BD05
:104A1000012104A800F04CF8684600F0A7F828E04F
:104A20001448808800281DDD12488288016801A88A
:104A3000FBF712FC0F48047900200E4988802246BB
:104A400001A99DF81000FFF7CDFB48B1601EC2B26E
:104A500001A99DF8100001F0CFFD05462846D5E7D5
:104A60000120D3E71921684600F0B6FB08B1022007
:104A7000CCE7D5E7C804002010B504462046FFF770
:104A8000B9FF10BD10B501220849EA2000F058F81E
:104A900001220649091DEA2000F052F801220349CB
:104AA000491CEA2000F04CF810BD000030670008F7
:104AB00070B505460C460749224688682946FBF72B
:104AC000CBFB04488481828981680348FEF79CF807
:104AD00070BD0000C804002028010020FEB5064675
:104AE0000F46144600253046FEF710F908B901209C
:104AF000FEBD0CB1042C01DD0120F9E746F0800079
:104B00008DF80000002504E0795D681C0DF80010A8
:104B1000C5B2A542F8DB601CC4B221466846FCF76A
:104B2000F7F8C043C0B20DF80400601CC4B22146BF
:104B30006846FFF7BDFF1920FCF718FD0020D7E7F6
:104B4000FEB507460E461546002400BF06E0315D5F
:104B5000681E001B0DF80010601CC4B2AC42F6DBEE
:104B60002A4669463846FFF7B9FFFEBD10B5044630
:104B7000FCF7C0FE206010BDF8B504460D46164691
:104B80002B46002280212046009600F009F828B12B
:104B9000606D40F0200060650320F8BD0020FCE758
:104BA0002DE9F84F04460D4690461E46DDF8289044
:104BB000FCF7A0FEA0EB0900371AFCF79BFE82462B
:104BC0002C480068C0F3CB307843009045E0701C5F
:104BD000002842D0FCF78EFEA0EB0A00B84200D2BB
:104BE000A7BB2068406820F0E0002168486060684A
:104BF000B0F5827F0DD1A068B0F5004F03D0A0685A
:104C0000B0F5806F05D12068006820F04000216871
:104C10000860A06AB0F5005F0DD100BF2068006891
:104C200020F40050216808602068006840F40050BB
:104C30002168086000BF012084F8510000BF0020F7
:104C400084F8500000BF0320BDE8F88FFFE700980C
:104C500000B900270098401E009020688068284016
:104C6000A84201D1012000E000204045AFD1002042
:104C7000EAE700000C000020704700000FB410B5F8
:104C8000044684B9BDF81020114B03999868FBF7CE
:104C9000E3FABDF810100E488181828981680D48C1
:104CA000FDF7B2FF11E0012C0FD1BDF810200A4B27
:104CB00003999868FBF7D0FABDF810100648818177
:104CC000828981680548FDF79FFF10BC5DF814FBE1
:104CD000A8040020A0000020B8040020E400002068
:104CE000014A02F830107047980E00202DE9F0417B
:104CF00004460D46124EF7144FF00008032C01DB5A
:104D0000BDE8F08124B1012C05D0022C09D105E0C9
:104D10000B4EF71406E00A4EB71403E0094E0127C4
:104D200000E000BF00BF15B14FF0000801E04FF0F8
:104D30000108424639463046FCF7D6FD00BFDFE7A2
:104D400000080140000C014010B50446042C00DDB1
:104D500010BD0B480470012C04D0022C05D0032C8C
:104D600009D105E0FFF7CEFA06E0FFF7BFFA03E04E
:104D7000FFF7C2FA00E000BF00BF00BFE8E7000095
:104D80001D0000203FB581B000250024BDF8102093
:104D9000294B0399586800F0F7FC039800884CF2FF
:104DA000B251884202D00298804742E0039840887E
:104DB000BDF8101088421ADA0398458803980489D0
:104DC00000200399088129460398FBF7A1FF039966
:104DD000088103980089A04202D00298804728E009
:104DE0000020009001A80FC800F05EF921E00398B0
:104DF0004088BDF81010884202DD0298804718E014
:104E000003980489002003990881BDF810100398C5
:104E1000FBF77EFF0399088103980089A04202D026
:104E20000298804705E00220009001A80FC800F01A
:104E30003BF905B030BD00003C0000201FB5C4B0F8
:104E40000024BDF81C212249486801A900F09CFCFF
:104E5000BDF804004CF2B251884206D00120009007
:104E600044A80FC800F020F92FE0BDF80600BDF8F7
:104E70001C11884206D00120009044A80FC800F001
:104E800013F922E0BDF80C400020ADF80C00BDF88D
:104E90001C1101A8FBF73CFFADF80C00BDF80C009D
:104EA000A04206D00120009044A80FC800F0FCF8F2
:104EB0000BE0BDF81C2101A94698FBF7CDF90220B3
:104EC000009044A80FC800F0EFF848B010BD0000F3
:104ED0003C0000201FB5C4B00024BDF81C211B49B4
:104EE000486801A900F050FCBDF804004CF2B25132
:104EF000884206D00320009044A80FC800F0D4F8E0
:104F000022E0BDF80600BDF81C11884206D003203F
:104F1000009044A80FC800F0C7F815E0BDF80C4099
:104F20000020ADF80C00BDF81C1101A8FBF7F0FE45
:104F3000ADF80C00BDF80C00A04205D00320009095
:104F400044A80FC800F0B0F848B010BD3C000020E5
:104F50007FB5002500249DE80F00FDF7A9FFBDF8EF
:104F60000C202B4B0299186800F00EFC0298008868
:104F70004CF2B251884204D09DE80F00FFF702FFC7
:104F800044E002984088BDF80C1088421ADA029872
:104F900045880298048900200299088129460298D0
:104FA000FBF7B6FE0299088102980089A04204D05E
:104FB0009DE80F00FFF7E6FE28E09DE80F00FFF7F1
:104FC0003DFF23E002984088BDF80C10884204DDC4
:104FD0009DE80F00FFF7D6FE18E002980489002034
:104FE00002990881BDF80C100298FBF791FE029916
:104FF000088102980089A04204D09DE80F00FFF7C5
:10500000C1FE03E09DE80F00FFF764FF7FBD0000D5
:105010003C0000201FB52924FBF74EFE0446292C36
:105020000BDA0020054901EB44014870694620462F
:10503000FDF752FF08B1019880471FBD980D002071
:1050400010B5FFF7E7FF00F007F810BD10B500F04E
:1050500085FBFEF783F810BD10B586B02924FBF759
:1050600045FE0446292C0EDA0020084901F81400F8
:1050700002A92046FDF730FF28B10020009002A8C9
:105080000FC800F011F806B010BD0000980D002008
:10509000292800DB70470121024A02F8101000BFE6
:1050A000F8E70000980D00201FB5069C9DE80F0052
:1050B000FDF7FEFE4CF2B25002990880BDF80C00DC
:1050C00002994880002002990881BDF80C100298CE
:1050D000FBF71EFE0299088134B1012C13D0022C7B
:1050E00020D0032C2ED125E0BDF80C20164B0299C0
:1050F000186800F0D5FBBDF80C20134B02995868D6
:1051000000F0CEFB1EE0BDF80C200F4B0299586852
:1051100000F0C6FBBDF80C200B4B0299186800F09C
:10512000BFFB0FE0BDF80C20074B0299186800F098
:10513000B7FB07E0BDF80C20034B0299586800F05C
:10514000AFFB00BF00BF1FBD3C0000200CB5D0E985
:105150000023CDE90023D1E90023C0E90023DDE9E4
:105160000023C1E900230CBD10B5FCF7C9FB10BD3D
:1051700000B58FB0282105A8FBF787F814216846F1
:10518000FBF783F80A2005900120099010200A906F
:1051900001200B9002200C9000210D914FF4601122
:1051A0000E9105A8FCF7B4FD08B1FBF732FE0F2005
:1051B000009002200190002002904FF48060039044
:1051C0000020049002216846FCF76CFC08B1FBF754
:1051D00020FE0FB000BD704770B504460D46002696
:1051E000FCF788FB06462068301AA84202D32660E6
:1051F000012070BD0020FCE770B505466C6A0020F8
:10520000E085E0842046FDF7F9F970BD70B50646EB
:105210000025746A20684069C0F3C01594F83D0009
:10522000212805D125B10020E084204600F0A7F810
:1052300020684069C0F3801594F83E00222805D10B
:1052400025B10020E085204600F06EF8206C40F08B
:10525000100020642046FDF7D1F970BD70B50546F9
:105260006C6A2868006800F02000F8B90020E0852A
:105270002068C06820F480702168C8602068406998
:1052800020F00100216848612068406920F040005A
:1052900021684861202084F83E00206B012805D158
:1052A0002068C06820F010002168C860206B0128C9
:1052B00004D1A18D2046FDF769F902E02046FDF7F3
:1052C000A1FC70BD70B505466C6A206B012805D144
:1052D000A08D41082046FDF759F902E02046FDF770
:1052E00092FC70BD70B505466C6A2868006800F0D5
:1052F000200070B90020E0842068406920F0800020
:10530000216848612068C06840F040002168C8609A
:1053100002E02046FDF7C6FC70BD70B50446656A24
:105320002846FDF7C0FC70BD0168C96821F4907182
:105330000268D1600168496921F001010268516188
:10534000016B012905D10168C96821F010010268CB
:10535000D160202180F83E1000210163704710B514
:1053600004462068C06820F040002168C860202002
:1053700084F83D002046FDF795FC002010BD016833
:10538000C96821F0C0010268D160202180F83D1079
:105390007047F8B5044694F83E00222869D1A06809
:1053A000B0F5805F0CD1206950B90025A66A20684D
:1053B0004068C0F308003080A06A801CA06215E03D
:1053C000A56A0026A068B0F5805F03D0A06828B960
:1053D000206918B920684068287004E02068406897
:1053E00000F07F002870A06A401CA062E08D401E83
:1053F00080B2E085A8BB2068C06820F0200021684A
:10540000C8602068C06820F480702168C860206887
:10541000406920F0010021684861202084F83E00A6
:10542000206B01281ED1002020632068C06820F076
:1054300010002168C8602068006800F01000102883
:105440000AD100BF0020009020680068009020680A
:105450004068009000BF00BFA18D2046FDF796F880
:1054600003E004E02046FDF7CDFB0020F8BD00205E
:10547000FCE70220FAE7000070B5044621680969DC
:1054800021F44051E2681143226811612269A16848
:105490001143626941EA02052168C96841F20C6260
:1054A000914329432268D1602168496921F4407100
:1054B000A2691143226851612D4A2168914202D1AB
:1054C000FCF7CCFB01E0FCF7B9FB00EBC00101EB02
:1054D000001162689200B1FBF2F100EBC00202EB36
:1054E000001263689B00B2FBF3F26423B2FBF3F299
:1054F00002EBC20303EB0212A1EB8201322202EBA8
:1055000001116422B1FBF2F101F0F00100EBC002E5
:1055100002EB001263689B00B2FBF3F26423B2FB60
:10552000F3F201EB021200EBC00101EB0011636822
:105530009B00B1FBF3F100EBC00303EB00136668C3
:10554000B600B3FBF6F36426B3FBF6F303EBC30636
:1055500006EB0313A1EB8301322303EB0111642358
:10556000B1FBF3F101F00F0111442268916070BDAD
:105570000038014077B581B0044615460298A06214
:10558000A58500202064222084F83E001C48A16BE1
:1055900088621C48A16BC8621B48A16B086300208D
:1055A000A16B486302AE32682368191D2B46A06BBD
:1055B000FBF78EFF00BF002000902068006800907D
:1055C00020684068009000BF00BF00BF002084F842
:1055D0003C0000BF2068C06840F480702168C8604B
:1055E0002068406940F001002168486120684069F6
:1055F00040F0400021684861002004B070BD000008
:105600005D520008C55200080D520008014691F88D
:105610003D00212828D18868B0F5805F0BD108694A
:1056200048B90A6A1088C0F308000B685860086A15
:10563000801C086205E00B6A581C086218780B6829
:105640005860C88C401E80B2C88458B90868C068C9
:1056500020F080000B68D8600868C06840F0400007
:105660000B68D860002070470220FCE710B50248A4
:10567000FCF7F4FF10BD0000A000002010B50248A8
:10568000FCF7ECFF10BD0000E400002010B502485C
:10569000FCF7E4FF10BD00002801002010B5B2B0F7
:1056A0000024642119A8FAF7F0FD64216846FAF78E
:1056B000ECFD642119A8FAF7E8FD64216846FAF7C1
:1056C000E4FD19A8064948600846C0F80CD0FDF76B
:1056D000ADFB04460CB1FBF75AFA32B010BD000026
:1056E000840D002000BFFEE710B5052000F07CF817
:1056F000044604F0010008B1012010BD0020FCE7C1
:1057000010B50446C4F30B0008B1200B040300F0ED
:10571000A9F800F02BF900224FF480510748FCF75C
:10572000E3F8202000F08AF8204600F079F8012202
:1057300011030248FCF7D8F810BD0000000C01402E
:1057400070B505460E46002400BF04E0FF2000F0BF
:1057500039F82855641CB442F8D370BD10B500F078
:1057600003F800F07FF810BD064800210160416099
:1057700081604FF480700349086008460068400863
:1057800048607047EC0D002070B506460C46154683
:1057900000F068F800224FF480510948FCF7A4F8A3
:1057A000032000F04BF8304600F03AF82946204636
:1057B000FFF7C6FF012211030148FCF795F870BD01
:1057C000000C014001B582B0FF2001904FF47A70C7
:1057D000012301AA02A900900248FCF76FFD9DF881
:1057E00004000EBD4800002038B50446002000909B
:1057F00000224FF480510948FCF776F8204600F06B
:105800001DF801216846FFF79BFF012211030348A1
:10581000FCF76AF89DF8000038BD0000000C01405C
:1058200010B50446C4F30740FFF7CCFFC4F30720CC
:10583000FFF7C8FFE0B2FFF7C5FF10BD10B5044683
:105840002046FFF7BFFF10BD70B505460E46002489
:1058500000BF03E0285DFFF7B5FF641CB442F9D335
:1058600070BD000008B5002000906846FFF77EF983
:1058700011E00A48007A00B10EE0FFF735FF00B9E9
:105880000AE04FF496716846FFF7A6FC18B10120B4
:105890000249087200E0ECE700BF08BDEC0D0020F3
:1058A0002DE9F047ADF5805D07468A4616462E483D
:1058B000007A20B100200DF5805DBDE8F0874FEA49
:1058C0001738C7F30B09C9F58054B44200D33446E6
:1058D00048E0FF224FF480516846FAF7CFFC4FEAC8
:1058E00008304FF480526946FFF74EFF002507E06D
:1058F00009EB05001DF80000FF2800D002E06D1C38
:10590000A542F5D300BFA54215D23846FFF7F8FEF1
:10591000002506E01AF8050005EB09010DF8010065
:105920006D1CA542F6D34FEA08304FF48052694609
:1059300000F060F804E022465146384600F05AF87C
:10594000A64201D10120B6E708F101084FF0000995
:10595000A2442744361BB6F5805F02D94FF4805429
:1059600000E03446B5E70000EC0D002010B5002241
:105970004FF480510548FBF7B7FF0620FFF75EFFA5
:10598000012211030148FBF7AFFF10BD000C0140DD
:105990002DE9F04105460E4614460027B846B4F5F9
:1059A000807F02D90020BDE8F081EFB2C7F5807892
:1059B000444501D90020F6E7FFF754FFFFF7D6FF73
:1059C00000224FF480510A48FBF78EFF0220FFF7B8
:1059D00035FF2846FFF724FF21463046FFF734FF06
:1059E000012211030248FBF77FFF0120DBE70000E3
:1059F000000C01402DE9F04706460F4614464FF0D3
:105A00000008C146C2460025B4F5805F02D90020D7
:105A1000BDE8F087C6F30B08C8F580594C4501D99D
:105A20000020F5E706F0FF0ACAF58075A54200D30D
:105A3000254616E02A4639463046FFF7A9FF70B1E1
:105A4000A54201D10120E3E72E442F44641BB4F5A5
:105A5000807F02D94FF4807503E0254601E00020E5
:105A6000D6E7E7E7490050EAC12018BF04204A0DF5
:105A700018BF40F0010040F2FF72B2EB515F08BF67
:105A800040F00200012808BF052070470248006866
:105A9000C0F30220704700000CED00E010B50028B4
:105AA00004DB0A07130E054A135406E00A07140E16
:105AB000034A00F00F031B1FD45410BD00E400E0A4
:105AC00018ED00E02DE9F0414F1E00EBC701044640
:105AD000D1E9000115461E4637F006020DD02A46D0
